{
  "contractName": "CertificateContract",
  "abi": [
    {
      "inputs": [
        {
          "internalType": "uint256",
          "name": "",
          "type": "uint256"
        }
      ],
      "name": "cert",
      "outputs": [
        {
          "internalType": "string",
          "name": "certhash",
          "type": "string"
        },
        {
          "internalType": "address payable",
          "name": "issuer",
          "type": "address"
        },
        {
          "internalType": "address payable",
          "name": "student",
          "type": "address"
        },
        {
          "internalType": "string",
          "name": "studentName",
          "type": "string"
        },
        {
          "internalType": "string",
          "name": "issuerName",
          "type": "string"
        }
      ],
      "stateMutability": "view",
      "type": "function",
      "constant": true
    },
    {
      "inputs": [
        {
          "internalType": "string",
          "name": "certhash",
          "type": "string"
        },
        {
          "internalType": "address payable",
          "name": "issuer",
          "type": "address"
        },
        {
          "internalType": "address payable",
          "name": "student",
          "type": "address"
        },
        {
          "internalType": "string",
          "name": "studentName",
          "type": "string"
        },
        {
          "internalType": "string",
          "name": "issuerName",
          "type": "string"
        }
      ],
      "name": "addCertificate",
      "outputs": [],
      "stateMutability": "payable",
      "type": "function",
      "payable": true
    },
    {
      "inputs": [
        {
          "internalType": "string",
          "name": "certhash",
          "type": "string"
        },
        {
          "internalType": "address",
          "name": "checker",
          "type": "address"
        }
      ],
      "name": "verifyCerticate",
      "outputs": [
        {
          "internalType": "string",
          "name": "",
          "type": "string"
        }
      ],
      "stateMutability": "view",
      "type": "function",
      "constant": true
    }
  ],
  "bytecode": "0x608060405234801561001057600080fd5b50610d77806100206000396000f3fe6080604052600436106100345760003560e01c8063b3b81ebd14610039578063ebdd1ad614610076578063f5da918614610092575b600080fd5b34801561004557600080fd5b50610060600480360381019061005b9190610850565b6100d3565b60405161006d9190610934565b60405180910390f35b610090600480360381019061008b9190610994565b61026b565b005b34801561009e57600080fd5b506100b960048036038101906100b49190610a99565b6103d7565b6040516100ca959493929190610ad5565b60405180910390f35b606060005b60008054905081101561026357836040516020016100f69190610b79565b60405160208183030381529060405280519060200120600082815481106101205761011f610b90565b5b90600052602060002090600502016000016040516020016101419190610cb3565b6040516020818303038152906040528051906020012003610250578273ffffffffffffffffffffffffffffffffffffffff166000828154811061018757610186610b90565b5b906000526020600020906005020160010160009054906101000a900473ffffffffffffffffffffffffffffffffffffffff1673ffffffffffffffffffffffffffffffffffffffff1603610212576040518060400160405280601881526020017f5468652063657274696669636174652069732076616c69640000000000000000815250915050610265565b6040518060400160405280601a81526020017f54686520636572746966696361746520697320696e76616c6964000000000000815250915050610265565b808061025b90610cf9565b9150506100d8565b505b92915050565b60006040518060a001604052808781526020018673ffffffffffffffffffffffffffffffffffffffff1681526020018573ffffffffffffffffffffffffffffffffffffffff16815260200184815260200183815250908060018154018082558091505060019003906000526020600020906005020160009091909190915060008201518160000190805190602001906103059291906105f5565b5060208201518160010160006101000a81548173ffffffffffffffffffffffffffffffffffffffff021916908373ffffffffffffffffffffffffffffffffffffffff16021790555060408201518160020160006101000a81548173ffffffffffffffffffffffffffffffffffffffff021916908373ffffffffffffffffffffffffffffffffffffffff16021790555060608201518160030190805190602001906103b09291906105f5565b5060808201518160040190805190602001906103cd9291906105f5565b5050505050505050565b600081815481106103e757600080fd5b906000526020600020906005020160009150905080600001805461040a90610bee565b80601f016020809104026020016040519081016040528092919081815260200182805461043690610bee565b80156104835780601f1061045857610100808354040283529160200191610483565b820191906000526020600020905b81548152906001019060200180831161046657829003601f168201915b5050505050908060010160009054906101000a900473ffffffffffffffffffffffffffffffffffffffff16908060020160009054906101000a900473ffffffffffffffffffffffffffffffffffffffff16908060030180546104e490610bee565b80601f016020809104026020016040519081016040528092919081815260200182805461051090610bee565b801561055d5780601f106105325761010080835404028352916020019161055d565b820191906000526020600020905b81548152906001019060200180831161054057829003601f168201915b50505050509080600401805461057290610bee565b80601f016020809104026020016040519081016040528092919081815260200182805461059e90610bee565b80156105eb5780601f106105c0576101008083540402835291602001916105eb565b820191906000526020600020905b8154815290600101906020018083116105ce57829003601f168201915b5050505050905085565b82805461060190610bee565b90600052602060002090601f016020900481019282610623576000855561066a565b82601f1061063c57805160ff191683800117855561066a565b8280016001018555821561066a579182015b8281111561066957825182559160200191906001019061064e565b5b509050610677919061067b565b5090565b5b8082111561069457600081600090555060010161067c565b5090565b6000604051905090565b600080fd5b600080fd5b600080fd5b600080fd5b6000601f19601f8301169050919050565b7f4e487b7100000000000000000000000000000000000000000000000000000000600052604160045260246000fd5b6106ff826106b6565b810181811067ffffffffffffffff8211171561071e5761071d6106c7565b5b80604052505050565b6000610731610698565b905061073d82826106f6565b919050565b600067ffffffffffffffff82111561075d5761075c6106c7565b5b610766826106b6565b9050602081019050919050565b82818337600083830152505050565b600061079561079084610742565b610727565b9050828152602081018484840111156107b1576107b06106b1565b5b6107bc848285610773565b509392505050565b600082601f8301126107d9576107d86106ac565b5b81356107e9848260208601610782565b91505092915050565b600073ffffffffffffffffffffffffffffffffffffffff82169050919050565b600061081d826107f2565b9050919050565b61082d81610812565b811461083857600080fd5b50565b60008135905061084a81610824565b92915050565b60008060408385031215610867576108666106a2565b5b600083013567ffffffffffffffff811115610885576108846106a7565b5b610891858286016107c4565b92505060206108a28582860161083b565b9150509250929050565b600081519050919050565b600082825260208201905092915050565b60005b838110156108e65780820151818401526020810190506108cb565b838111156108f5576000848401525b50505050565b6000610906826108ac565b61091081856108b7565b93506109208185602086016108c8565b610929816106b6565b840191505092915050565b6000602082019050818103600083015261094e81846108fb565b905092915050565b6000610961826107f2565b9050919050565b61097181610956565b811461097c57600080fd5b50565b60008135905061098e81610968565b92915050565b600080600080600060a086880312156109b0576109af6106a2565b5b600086013567ffffffffffffffff8111156109ce576109cd6106a7565b5b6109da888289016107c4565b95505060206109eb8882890161097f565b94505060406109fc8882890161097f565b935050606086013567ffffffffffffffff811115610a1d57610a1c6106a7565b5b610a29888289016107c4565b925050608086013567ffffffffffffffff811115610a4a57610a496106a7565b5b610a56888289016107c4565b9150509295509295909350565b6000819050919050565b610a7681610a63565b8114610a8157600080fd5b50565b600081359050610a9381610a6d565b92915050565b600060208284031215610aaf57610aae6106a2565b5b6000610abd84828501610a84565b91505092915050565b610acf81610956565b82525050565b600060a0820190508181036000830152610aef81886108fb565b9050610afe6020830187610ac6565b610b0b6040830186610ac6565b8181036060830152610b1d81856108fb565b90508181036080830152610b3181846108fb565b90509695505050505050565b600081905092915050565b6000610b53826108ac565b610b5d8185610b3d565b9350610b6d8185602086016108c8565b80840191505092915050565b6000610b858284610b48565b915081905092915050565b7f4e487b7100000000000000000000000000000000000000000000000000000000600052603260045260246000fd5b7f4e487b7100000000000000000000000000000000000000000000000000000000600052602260045260246000fd5b60006002820490506001821680610c0657607f821691505b602082108103610c1957610c18610bbf565b5b50919050565b60008190508160005260206000209050919050565b60008154610c4181610bee565b610c4b8186610b3d565b94506001821660008114610c665760018114610c7757610caa565b60ff19831686528186019350610caa565b610c8085610c1f565b60005b83811015610ca257815481890152600182019150602081019050610c83565b838801955050505b50505092915050565b6000610cbf8284610c34565b915081905092915050565b7f4e487b7100000000000000000000000000000000000000000000000000000000600052601160045260246000fd5b6000610d0482610a63565b91507fffffffffffffffffffffffffffffffffffffffffffffffffffffffffffffffff8203610d3657610d35610cca565b5b60018201905091905056fea2646970667358221220cf232b520e212d57508e1a1b4bc3089f7ac977f45bdb11d12decc7d4f657d0fb64736f6c634300080d0033",
  "immutableReferences": {},
  "source": "// SPDX-License-Identifier: Unlicensed\n\npragma solidity >=0.4.22 <0.9.0;\n\ncontract CertificateContract {\n\n    // the certificate structure\n    struct Certificate {\n        string certhash;\n        address payable issuer;\n        address payable student;\n        string studentName;\n        string issuerName;\n    }\n\n    Certificate[] public cert;\n\n  // adding the certificates\n    function addCertificate(string memory certhash, address payable issuer,address payable student, string memory studentName, string memory issuerName) payable public {\n      cert.push(Certificate(\n        certhash,\n        issuer,\n        student,\n        studentName,\n        issuerName\n      ));\n    }\n\n  // verifying the certificate\n  function verifyCerticate(string memory certhash, address checker) view public returns(string memory) {\n    for(uint i = 0; i < cert.length; i++) {\n      // Checking the certificate hash in the list\n      if(keccak256(abi.encodePacked(cert[i].certhash)) == keccak256(abi.encodePacked(certhash))) {\n        // Checking the issuer of the certificate is legit or non\n        if(cert[i].issuer == checker) {\n          return \"The certificate is valid\";\n        } \n        else {\n          return \"The certificate is invalid\";\n        }\n      }\n    }\n  }\n\n}\n\n",
  "sourcePath": "D:\\Hackathon\\Smart Digital Hackathon\\blockchain-certificate\\backend\\contracts\\CertificateContract.sol",
  "compiler": {
    "name": "solc",
    "version": "0.8.13+commit.abaa5c0e.Emscripten.clang"
  },
  "schemaVersion": "3.4.7",
  "updatedAt": "2022-09-20T15:02:27.080Z",
  "networkType": "ethereum",
  "devdoc": {
    "kind": "dev",
    "methods": {},
    "version": 1
  },
  "userdoc": {
    "kind": "user",
    "methods": {},
    "version": 1
  }
}